:020000040800F2
:1000000080060020E9010008C10D00083F06000835
:10001000BD0D000897050008B91700080000000092
:10002000000000000000000000000000471600086B
:100030009B05000800000000C30D000871160008B1
:10004000030200080302000803020008030200087C
:10005000030200080302000803020008030200086C
:10006000030200080302000803020008030200085C
:10007000030200080302000803020008030200084C
:10008000030200080302000803020008030200083C
:10009000030200080302000803020008030200082C
:1000A000030200080302000803020008030200081C
:1000B000030200080302000803020008030200080C
:1000C00003020008030200080302000803020008FC
:1000D00003020008030200080302000803020008EC
:1000E00003020008030200080302000803020008DC
:1000F00003020008030200080302000803020008CC
:1001000003020008030200080302000803020008BB
:1001100003020008030200080302000803020008AB
:10012000030200080302000803020008030200089B
:100130000000000003020008030200080302000898
:100140000302000800F002F800F03FF80AA090E86F
:10015000000C82448344AAF10107DA4501D100F082
:1001600034F8AFF2090EBAE80F0013F0010F18BF10
:10017000FB1A43F001031847683000008830000084
:10018000103A24BF78C878C1FAD8520724BF30C8C3
:1001900030C144BF04680C60704700000023002495
:1001A00000250026103A28BF78C1FBD8520728BF87
:1001B00030C148BF0B607047782900F07180002083
:1001C00070471FB51FBD10B510BD00F0AAF911464C
:1001D000FFF7F7FF01F040FB00F0C8F903B4FFF7A9
:1001E000F2FF03BC00F0D0F90948804709480047F6
:1001F000FEE7FEE7FEE7FEE7FEE7FEE7FEE7FEE7D7
:10020000FEE7FEE704480549054A064B7047000033
:1002100059170008450100088000002080060020D2
:1002200080020020800200200FB41CB5074B06AAF4
:100230007B4469460090059800F05BF90020694610
:1002400000F06AF91CBC5DF814FB0000E502000038
:1002500070B5044685690068C10601D5302600E006
:100260002026C00707D070BDD4E901213046904751
:10027000206A401C20626D1EF6D570BD70B5044624
:1002800085690078C00707D170BDD4E9012120201D
:100290009047206A401C20626D1EF6D570BD00009C
:1002A00070B504460D4621461068AFF300802188E2
:1002B000090502D50F4A7A4402E00E4A7A440E320A
:1002C000002104F1240305E000F00F060009965D0B
:1002D0005E54491C0028F7D120780023000704D57C
:1002E000702D02D009B1022311322046BDE87040C2
:1002F00000F0A1B8EA2E00002DE9F05F894604461F
:100300004FF0000ADFF824B1FB44C0F820A02046DB
:10031000E168884700287DD0252806D0D4E901214E
:100320009047206A401C2062F1E700255F46204686
:10033000E16888472028064607DB312E05D2B81928
:1003400010F8200C08B10543F1E7A80701D525F006
:100350000405C4F81CA00027C4F818A02A2E09D050
:10036000304601F02BFA38B304EB8708303EC8F86A
:10037000186019E059F8041B204604EB87029161CC
:10038000E1688847012F064618D1E069002820DA85
:1003900025F020051DE0D8F8180000EB800006EBE2
:1003A00040003038C8F818002046E1688847064603
:1003B00001F004FA0028EED1012F0AD02E2E08D128
:1003C0002046E16888477F1C0646022F45F020053D
:1003D000C4DBA069002803DA404245F00105A061B2
:1003E000E80701D025F01005A6B1A6F141001928B3
:1003F00002D8203645F400654A463146204625603D
:100400004D46FFF7D9FE60B1012807D0ED1D25F05C
:10041000070000E007E000F1080978E705F10409AA
:1004200075E730467AE7206ABDE8F09FC02E0000ED
:100430007047704770472DE9F0470D469946924640
:10044000044600F124080168880604D5E06921F01B
:100450001001216000E00120A84201DD471B00E0FF
:100460000027A1697A1902EB0900081AA061207817
:10047000C00602D42046FFF7EBFE002608E0D4E9D0
:1004800001211AF806009047206A401C761C206261
:100490004E45F4DB2078C0060AD52046FFF7D8FE8B
:1004A00006E0D4E9012130209047206A401C2062F8
:1004B000381EA7F10107F4DC07E0D4E9012118F8A0
:1004C00005009047206A401C2062281EA5F1010506
:1004D000F3DC2046FFF7D2FE2078000602D502208A
:1004E000BDE8F0870120FBE701694A1C026108783A
:1004F000704700B58FB0CDE9013100210591054964
:100500007944CDE9031011466846FFF7F5FE0FB0B8
:1005100000BD0000E5FFFFFF0A6802F8010B0A605A
:100520007047754600F02CF8AE4605006946534604
:1005300020F00700854618B020B5FFF763FEBDE840
:1005400020404FF000064FF000074FF000084FF03A
:10055000000B21F00701AC46ACE8C009ACE8C009CB
:10056000ACE8C009ACE8C0098D46704710B5044638
:10057000AFF300802046BDE81040FFF72FBE00001B
:10058000004870471C00002001491820ABBEFEE760
:1005900026000200704700BFFEE77047F0B5CF7835
:1005A00007F00F06CF7807F080070FB18F783E4332
:1005B0000F78E7B104680023012215E00F88174087
:1005C0007FB19D000F27AF40BC4306FA05F73C43BF
:1005D000CF78282F01D1426103E0CF78482F00D196
:1005E00002615F1CFBB25200082BE7DB04600F883E
:1005F00007F47F47F7B1446808235A0117E00F88D2
:1006000017408FB1A3F10807BD000F27AF40BC43CF
:1006100006FA05F73C43CF78282F01D1426103E069
:10062000CF78482F00D102615F1CFBB25200102B23
:10063000E5DB4460F0BD416170470161704700BF78
:10064000FEE7000008B5082000F0C4FB0120ADF86B
:10065000000080208DF8030003208DF80200694619
:100660000148FFF79BFF08BD000C014070B5044630
:10067000002609480588408845430021084600F0C7
:100680009DFA00F089FB00BF02E004480480761C5C
:10069000AE42FAD370BD00000C0000200008006CD0
:1006A00010B5044674B900200F498871F020088005
:1006B0004FF4A07048802C2008812A2048812B20EC
:1006C00088810DE00120084988714FF4A0700880EE
:1006D000F02048802C2008812A2048812B20888106
:1006E000002000F011FA10BD0C00002010B50346E8
:1006F0000C460D49488900F049FB181200F040FBF8
:10070000D8B200F03DFB0849888900F03FFB201279
:1007100000F036FBE0B200F033FB034800890349E8
:100720000880881C028010BD0C000020FE07006CB1
:1007300008B5082000F04EFB2020ADF80000802016
:100740008DF8030003208DF8020069460148FFF789
:1007500025FF08BD000C014000B58BB04FF4807040
:1007600000F030FB4FF4B07000F034FB4CF233700B
:10077000ADF8280088208DF82B0003208DF82A0082
:100780000AA9D748FFF70AFF4FF68070ADF8280096
:1007900088208DF82B0003208DF82A000AA9D14863
:1007A000FFF7FCFE41F20100ADF8280088208DF82B
:1007B0002B0003208DF82A000AA9CB48FFF7EEFE94
:1007C00001208DF8080000208DF809000F208DF819
:1007D0000A0000208DF80B008DF80C008DF80D003C
:1007E0008DF80E008DF800008DF8010003208DF8C3
:1007F000020000208DF803008DF804008DF805003C
:100800008DF8060003208DF8100000208DF81100EF
:100810008DF8120001208DF8130000208DF81400CF
:100820008DF816008DF815008DF817008DF818005A
:1008300001208DF8190000208DF81A0001208DF894
:100840001B0000208DF81C0002A80890CDF824D0D1
:1008500004A800F0C7FA032000F0C6FE642000F0F0
:10086000D5FFD32000F092FA00F044F99F49888028
:1008700000F040F99D49888000F03CF99B49888050
:10088000084680884FF6FF7101EA0020974988806A
:1008900000F030F995498988084394498880CF2031
:1008A00000F074FA002000F06BFAC12000F068FA42
:1008B000302000F065FAED2000F068FA642000F0C6
:1008C0005FFA032000F05CFA122000F059FA812050
:1008D00000F056FAE82000F059FA852000F050FAAE
:1008E000102000F04DFA7A2000F04AFACB2000F0F8
:1008F0004DFA392000F044FA2C2000F041FA002093
:1009000000F03EFA342000F03BFA022000F038FA02
:10091000F72000F03BFA202000F032FAEA2000F045
:1009200035FA002000F02CFA002000F029FAC0204F
:1009300000F02CFA1B2000F023FAC12000F026FA68
:10094000012000F01DFAC52000F020FA302000F050
:1009500017FA302000F014FAC72000F017FAB72079
:1009600000F00EFA362000F011FA482000F008FAE4
:100970003A2000F00BFA552000F002FAB12000F006
:1009800005FA002000F0FCF91A2000F0F9F9B62071
:1009900000F0FCF90A2000F0F3F9A22000F0F0F9D1
:1009A000F22000F0F3F9002000F0EAF9262000F030
:1009B000EDF9012000F0E4F9E02000F0E7F90F2064
:1009C00000F0DEF92A2000F0DBF9282000F0D8F949
:1009D000082000F0D5F90E2000F0D2F9082000F030
:1009E000CFF9542000F0CCF9A92000F0C9F9432038
:1009F00000F0C6F90A2000F0C3F90F2000F0C0F99A
:100A0000002000F0BDF9002000F0BAF9002000F04D
:100A1000B7F9002000F0B4F9E12000F0B7F90020A8
:100A200000F0AEF9152000F0ABF9172000F0A8F99E
:100A3000072000F0A5F9112000F0A2F9062000F02F
:100A40009FF92B2000F09CF9562000F099F93C20EA
:100A500000F096F9052000F093F9102000F090F9CD
:100A60000F2000F08DF93F2000F08AF93F2000F0C0
:100A700087F90F2000F084F92B2000F087F900207F
:100A800000F07EF9002000F07BF9012000F078F9F9
:100A90003F2000F075F92A2000F078F9002000F0DE
:100AA0006FF9002000F06CF9002000F069F9EF20E8
:100AB00000F066F9112000F069F9782000F0A6FE38
:100AC000292000F063F90020FFF7EAFD0121084822
:100AD000FFF7B3FD4FF6FF70FFF7C8FD0BB000BD89
:100AE0000014014000180140002001400C000020CB
:100AF000000C014008B5034800880090BDF80000D4
:100B000008BD00000008006C30B504460023002535
:100B1000082C1CD2DFE804F00406090C0F1215188B
:100B200000BF14E043F0800311E043F040030EE007
:100B300043F0C0030BE043F0200308E043F0600300
:100B400005E043F0A00302E043F0E00300BF00BF74
:100B500036251946284600F029F91749488900F03A
:100B600015F9002000F00CF9002000F009F91249F5
:100B70000988491EC1F30F2000F002F90E490978D7
:100B8000491EC8B200F0FCF80B49888900F0FEF855
:100B9000002000F0F5F8002000F0F2F8064949883E
:100BA000491EC1F30F2000F0EBF803498978491E74
:100BB000C8B200F0E5F830BD0C00002000B50246D8
:100BC0000B460A49488900F0E1F8101200F0D8F805
:100BD000D0B200F0D5F80549888900F0D7F818128E
:100BE00000F0CEF8D8B200F0CBF800BD0C00002029
:100BF0002DE9F84F80460E4617461C46B346204660
:100C0000E31704EB5373DB1021464FEAE47C04EB5B
:100C10005C7C4FEAEC0CA4EBCC0CBCF1000F02D0D6
:100C20004FF0010C01E04FF0000C6344224604EB4E
:100C3000D27C4FEA6C0C03FB0CF3DBB20093A7F100
:100C40002000C7B2002556E00C2C07D107EB470067
:100C50002B4901EB800010F8059013E0102C05D112
:100C6000284800EB071010F805900BE0182C07D16E
:100C700007EBC700244901EB800010F8059001E064
:100C8000BDE8F88F4FF0000A2FE009F0800030B186
:100C90001E48028831464046FFF728FD07E00A98C3
:100CA00028B91B48028831464046FFF71FFD4FEA2E
:100CB00049604FEA1069701C86B216484088B042FD
:100CC00000DCDDE7A6EB0B00A0420AD15E4608F18E
:100CD00001001FFA80F80F480088404500DCCFE78C
:100CE00006E00AF1010000F0FF0ABAF1080FCCDBC0
:100CF00000BF681CC5B200988542A5DB00BFBFE7F6
:100D0000E4190008581E00084824000808000020C4
:100D10000A0000200C0000202DE9F84704460D468B
:100D200090469946DDE9096704F0FF0A08EB0400E4
:100D30001FFA80F809EB05001FFA80F916E0444518
:100D400002DB5446A81985B24D4500DB14E00020B3
:100D500000903A78334629462046FFF749FF30464F
:100D600006EBD07104EB61018CB27F1C38787E28D1
:100D700002DC38782028E2DA00BFBDE8F8870000FE
:100D800001490880704700000008006C0149088094
:100D900070470000FE07006C024800890249088085
:100DA000704700000C000020FE07006C024A108013
:100DB000921C118070470000FE07006C00BFFEE728
:100DC00070477047024949690143014A51617047C0
:100DD00000100240024989690143014A916170474C
:100DE00000100240017800297ED142784FF0204166
:100DF000096862F341014FF02042116082784FF0A0
:100E00002041096862F383014FF020421160C278EB
:100E10004FF02041096862F305114FF02042116044
:100E200002794FF02041096862F308214FF0204217
:100E3000116042794FF02041096862F3CF314FF0E1
:100E40002042116082794FF02041096862F3492104
:100E50004FF020421160C2794FF02041096862F3DF
:100E60008A214FF020421160027A4FF02041096838
:100E700062F3CB214FF020421160427A4FF02041C3
:100E8000096862F30C314FF020421160827A4FF012
:100E90002041096862F34D314FF020421160C27A5F
:100EA0004FF02041096862F38E314FF0204211600B
:100EB000027B4FF02041096862F3D3414FF020429A
:100EC00011608178022905D11146096821F040019D
:100ED0004031116001690A784FF02041496862F39E
:100EE00003014FF0204200E077E0516001694A7849
:100EF0004FF02041496862F307114FF020425160E2
:100F000001698A784FF02041496862F30F214FF060
:100F1000204251600169CA784FF02041496862F36C
:100F200013414FF02042516001690A794FF020418E
:100F3000496862F317514FF02042516001694A79C4
:100F40004FF02041496862F31B614FF0204251602D
:100F500001698A794FF02041496862F31D714FF0B1
:100F600020425160C17A012932D141690A78FE4993
:100F7000096862F30301FC4A116041694A784FF045
:100F80002041D1F8041162F30711F74A1160416959
:100F90008A784FF02041D1F8041162F30F21F24A10
:100FA00011604169CA784FF02041D1F8041162F311
:100FB0001341ED4A116041698A794FF02041D1F81F
:100FC000041162F31D714FF02042C2F8041107E3CF
:100FD0006FF07041E44A116002E3017801297CD18D
:100FE00042784FF02041896862F341014FF020427E
:100FF000916082784FF02041896862F383014FF05D
:1010000020429160C2784FF02041896862F3051157
:101010004FF02042916002794FF02041896862F3DD
:1010200008214FF02042916042794FF020418968B9
:1010300062F3CF314FF02042916082794FF020412E
:10104000896862F349214FF020429160C2794FF0E4
:101050002041896862F38A214FF020429160027A30
:101060004FF02041896862F3CB214FF0204291601C
:10107000427A4FF02041896862F30C314FF02042F0
:101080009160827A4FF02041896862F34D314FF0D0
:1010900020429160C27A4FF02041896862F38E311C
:1010A0004FF020429160027B4FF02041896862F34B
:1010B000D3414FF0204291608178022905D1114639
:1010C000896821F040014031916001690A784FF050
:1010D0002041C96862F3030100E07FE04FF0204245
:1010E000D16001694A784FF02041C96862F3071165
:1010F0004FF02042D16001698A784FF02041C968E1
:1011000062F30F214FF02042D1600169CA784FF09D
:101110002041C96862F313414FF02042D160016958
:101120000A794FF02041C96862F317514FF020420D
:10113000D16001694A794FF02041C96862F31B61AF
:101140004FF02042D16001698A794FF02041C9688F
:1011500062F31D714FF02042D160C17A012937D16D
:1011600041690A7880490831096862F303017E4ABF
:101170000832116041694A784FF02041D1F80C11D2
:1011800062F30711784A0832116041698A784FF09A
:101190002041D1F80C1162F30F21734A083211601B
:1011A0004169CA784FF02041D1F80C1162F3134124
:1011B0006D4A0832116041698A794FF02041D1F8B7
:1011C0000C1162F31D714FF02042C2F80C1107E2BE
:1011D0006FF07041644A0832116001E2017802291F
:1011E0007ED142784FF02041096962F341014FF00E
:1011F0002042116182784FF02041096962F3830136
:101200004FF020421161C2784FF02041096962F32A
:1012100005114FF02042116102794FF02041096918
:1012200062F308214FF02042116142794FF02041D2
:10123000096962F3CF314FF02042116182794FF09A
:101240002041096962F349214FF020421161C279BE
:101250004FF02041096962F38A214FF02042116169
:10126000027A4FF02041096962F3CB214FF020420E
:101270001161427A4FF02041096962F30C314FF05D
:1012800020421161827A4FF02041096962F34D31A9
:101290004FF020421161C27A4FF02041096962F398
:1012A0008E314FF020421161027B4FF020410969DD
:1012B00062F3D3414FF0204211618178022905D1B8
:1012C0001146096921F040014031116101690A7834
:1012D0004FF02041496962F303014FF0204200E0E2
:1012E00080E0516101694A784FF02041496962F319
:1012F00007114FF02042516101698A784FF0204177
:10130000496962F30F214FF0204251610169CA78A7
:101310004FF02041496962F313414FF0204251617F
:1013200001690A794FF02041496962F317514FF082
:101330002042516101694A794FF02041496962F3C5
:101340001B614FF02042516101698A794FF02041C1
:10135000496962F31D714FF020425161C17A012940
:101360003AD141690A7801E0040100A09D49103199
:10137000096862F303019B4A1032116041694A789F
:101380004FF02041D1F8141162F30711954A103241
:10139000116041698A784FF02041D1F8141162F34D
:1013A0000F21904A103211604169CA784FF02041F4
:1013B000D1F8141162F313418A4A10321160416965
:1013C0008A794FF02041D1F8141162F31D714FF06A
:1013D0002042C2F8141103E16FF07041814A1032CB
:1013E0001160FDE001780329F5D142784FF02041EA
:1013F000896962F341014FF02042916182784FF098
:101400002041896962F383014FF020429161C278E3
:101410004FF02041896962F305114FF0204291613C
:1014200002794FF02041896962F308214FF0204290
:10143000916142794FF02041896962F3CF314FF0D9
:101440002042916182794FF02041896962F34921FC
:101450004FF020429161C2794FF02041896962F3D7
:101460008A214FF020429161027A4FF02041896930
:1014700062F3CB214FF020429161427A4FF020413C
:10148000896962F30C314FF020429161827A4FF00A
:101490002041896962F34D314FF020429161C27A57
:1014A0004FF02041896962F38E314FF02042916103
:1014B000027B4FF02041896962F3D3414FF0204213
:1014C00091618178022905D11146896921F0400195
:1014D0004031916101690A784FF02041C96962F396
:1014E00003014FF02042D16101694A784FF0204159
:1014F000C96962F307114FF02042D16101698A780E
:101500004FF02041C96962F30F214FF02042D161B1
:101510000169CA784FF02041C96962F313414FF065
:101520002042D16101690A794FF02041C96962F313
:1015300017514FF02042D16101694A794FF02041A3
:10154000C96962F31B614FF02042D16101698A7958
:101550004FF02041C96962F31D714FF02042D16103
:10156000C17A012937D141690A781E4918310968C1
:1015700062F303011B4A1832116041694A784FF047
:101580002041D1F81C1162F30711164A183211607C
:1015900041698A784FF02041D1F81C1162F30F2184
:1015A000104A183211604169CA784FF02041D1F8D1
:1015B0001C1162F313410B4A1832116041698A7998
:1015C0004FF02041D1F81C1162F31D714FF0204201
:1015D000C2F81C1104E06FF07041024A1832116029
:1015E00070470000040100A048B94FF0204109688D
:1015F00021F00101491C4FF02042116022E0012836
:1016000009D14FF02041896821F00101491C4FF0B8
:101610002042916016E0022809D14FF0204109696B
:1016200021F00101491C4FF0204211610AE003281A
:1016300008D14FF02041896921F00101491C4FF088
:101640002042916170477047012808D14FF0E02196
:10165000096941F004014FF0E022116107E04FF009
:10166000E021096921F004014FF0E0221161704787
:101670007047000008B53448006820F4803000F559
:101680008030314908600020009008E02E48006852
:10169000C0F3404000B106E00098401C0090009864
:1016A000B0F5485FF2D300BF27480068C0F3404060
:1016B000002848D02548006820F010001030234949
:1016C00008600846006820F00700801C08601E487B
:1016D000406820F0F0001C4948600846406820F44B
:1016E000605048600846406820F4E06000F5806083
:1016F00048600846406820F4803000F5803048603B
:101700000846406820F4701000F5E0104860084674
:10171000006820F0807000F18070086000BF0A4807
:101720000068C0F340600028F9D00748406820F006
:101730000300801C0449486000BF03484068C0F3B0
:1017400081000228F9D108BD0010024000200240AB
:1017500010B5FFF78FFF10BD10B51348006820F0DB
:101760000100401C10490860084640680F490840C5
:101770000D494860084600680D4908400A4908605C
:101780000846006820F4802008600846406820F47D
:10179000FE0048604FF41F008860FFF7D9FF4FF04C
:1017A00000600449086010BD001002400000FFF80E
:1017B000FFFFF6FE08ED00E000BFFEE730380A2824
:1017C00001D20120704700207047000010B50020B2
:1017D000FFF73AFF094800680949B0FBF1F00949F1
:1017E00008700846007800EB4001C1EBC0104FF6CE
:1017F000FF7101EAC0000449088010BD000000200C
:1018000000127A0004000020060000200146114A60
:1018100012884A434FF0E0235A6100229A611A4627
:10182000126942F001021A6100BF4FF0E022106914
:1018300000F001021AB100F48032002AF5D04FF016
:10184000E022126922F001024FF0E0231A61002227
:101850009A6170470600002086B00024FFF7B6FFAB
:10186000FEF766FF20214D48FEF7E5FEC820FFF792
:10187000CDFF20214948FEF7E0FEFEF7E3FEFEF72C
:101880006BFF4748828847A103A8FEF7CDFC83E0A1
:101890000C2C41D2DFE804F0060B0F13181D222791
:1018A0002C31363B4FF6FF70FEF7E0FE34E00020AF
:1018B000FEF7DCFE30E01F20FEF7D8FE2CE04FF4F0
:1018C0007840FEF7D3FE27E04FF61F00FEF7CEFE6E
:1018D00022E04FF4FC60FEF7C9FE1DE047F6FF7002
:1018E000FEF7C4FE18E04FF6E070FEF7BFFE13E00F
:1018F0004FF60740FEF7BAFE0EE048F23040FEF722
:10190000B5FE09E04CF21860FEF7B0FE04E04BF6BD
:101910004040FEF7ABFE00BF00BF4FF478402449C3
:10192000088024A018210B46D222CDE900102821DE
:101930001E20FFF7F1F922A010210B46C822CDE9A5
:10194000001046211E20FFF7E7F920A010210B46CA
:10195000C822CDE900105A211E20FFF7DDF903A8A7
:1019600010210B46C822CDE900106E211E20FFF782
:10197000D3F919A00C210B46C822CDE90010822111
:101980001E20FFF7C9F9601CC4B20C2C00D1002442
:101990004FF47A70FFF73AFF7AE70000000C01403D
:1019A0000C0000204C43442049443A253034580070
:1019B000080000204745454859205E5F5E00000052
:1019C0005446544C434420544553540041504D33E5
:1019D0003245313033000000323032322F31302F77
:1019E0003130000000000000000000000000000096
:1019F000000000003F400000000000000000300038
:101A0000400030004000000009000BC03D000BC04A
:101A10003D00090018C024407FE0224031800000D2
:101A2000180024C01B000D803240018003801C4040
:101A300027401C80074000401000600000000000AC
:101A4000000000000000000000001F802040402037
:101A50000000402020401F80000000000900060018
:101A60001F80060009000000040004003F800400FD
:101A700004000000001000600000000000000000F2
:101A80000400040004000400040000000000004002
:101A90000000000000000000002001C00600380027
:101AA000400000001F802040204020401F80000098
:101AB000000010403FC000400000000018C021405E
:101AC0002240244018400000108020402440244040
:101AD0001B80000002000D0011003FC0014000000B
:101AE0003C80244024402440238000001F80244068
:101AF00024403440038000003000200027C038001C
:101B0000200000001B802440244024401B80000053
:101B10001C0022C0224022401F8000000000000064
:101B20000840000000000000000000000460000009
:101B300000000000000004000A0011002080404066
:101B400009000900090009000900000000004040E8
:101B5000208011000A000400180020002340240007
:101B6000180000001F802040274029401F4000002F
:101B7000004007C039000F0001C0004020403FC0B6
:101B8000244024401B8000001F8020402040204033
:101B90003080000020403FC0204020401F800000D7
:101BA00020403FC024402E4030C0000020403FC0B5
:101BB00024402E00300000000F0010802040224002
:101BC0003380020020403FC0040004003FC020409A
:101BD000204020403FC020402040000000602020E6
:101BE00020203FC02000200020403FC024400B00A8
:101BF00030C0204020403FC020400040004000C096
:101C00003FC03C0003C03C003FC0000020403FC03C
:101C10000C4023003FC020001F8020402040204077
:101C20001F80000020403FC0244024001800000016
:101C30001F802140214020E01FA0000020403FC025
:101C40002440260019C0004018C0244024402240EF
:101C500031800000300020403FC0204030000000B4
:101C600020003F80004000403F80200020003E00D8
:101C700001C0070038002000380007C03C0007C042
:101C800038000000204039C0060039C02040000064
:101C90002000384007C0384020000000304021C0FC
:101CA0002640384020C00000000000007FE04020B7
:101CB00040200000000070000C0003800040000085
:101CC0000000402040207FE00000000000002000D5
:101CD0004000200000000000001000100010001064
:101CE0000010001000000000400000000000000094
:101CF000000002800540054003C0004020003FC0B6
:101D000004400440038000000000038004400440BD
:101D10000640000000000380044024403FC0004013
:101D2000000003800540054003400000000004401F
:101D30001FC0244024402000000002E00550055050
:101D40000650042020403FC00440040003C000406F
:101D50000000044027C000400000000000100010F8
:101D6000041027E00000000020403FC001400700B1
:101D700004C00440204020403FC00040004000001C
:101D800007C0040007C0040003C00000044007C0EF
:101D90000440040003C000400000038004400440ED
:101DA00003800000041007F004500440038000008A
:101DB000000003800440045007F00010044007C0F6
:101DC00002400400040000000000064005400540F9
:101DD00004C00000000004001F8004400040000018
:101DE000040007800040044007C0004004000700D2
:101DF00004C0018006000400060001C0070001C005
:101E000006000000044006C0010006C004400000B7
:101E10000410071004E001800600040000000440E4
:101E200005C00640044000000000000004007BE004
:101E300040200000000000000000FFF00000000053
:101E4000000040207BE00400000000004000800013
:101E500040002000200040000000000000000000C2
:101E600000000000000000000000000000001FCC87
:101E7000000C0000000000000000080030006000BE
:101E80000800300060000000022003FC1E20022039
:101E900003FC1E200220000000000E1811043FFF6A
:101EA00010840C78000000000F0010840F3800C070
:101EB000077818840078000000780F8410C411247B
:101EC0000E9800E40084000808006800700000001C
:101ED000000000000000000000000000000007E01B
:101EE00018182004400200000000400220041818C6
:101EF00007E00000000000000240024001800FF0F7
:101F000001800240024000000080008000800FF845
:101F100000800080008000000001000D000E000025
:101F20000000000000000000000000800080008031
:101F300000800080008000800000000C000C000089
:101F40000000000000000000000000060018006013
:101F50000180060018002000000007F008081004A7
:101F60001004080807F000000000080408041FFC23
:101F7000000400040000000000000E0C10141024E7
:101F8000104411840E0C000000000C181004110401
:101F9000110412880C700000000000E003200424EB
:101FA00008241FFC0024000000001F981084110466
:101FB0001104108810700000000007F00888110458
:101FC000110418880070000000001C00100010FCB4
:101FD00013001C001000000000000E381144108493
:101FE000108411440E38000000000700088C1044D3
:101FF0001044088807F00000000000000000030CF7
:10200000030C0000000000000000000000010106B9
:1020100000000000000000000000008001400220DD
:1020200004100808100400000220022002200220F0
:102030000220022002200000000010040808041002
:10204000022001400080000000000E001200100C71
:10205000106C10800F00000003E00C1813E414242F
:1020600017C4082807D000000004003C03C41C402B
:10207000074000E4001C000410041FFC11041104BC
:1020800011040E880070000003E00C181004100406
:10209000100410081C10000010041FFC1004100491
:1020A0001004080807F0000010041FFC11041104BC
:1020B00017C410040818000010041FFC11041100BC
:1020C00017C010000800000003E00C1810041004F2
:1020D00010441C780040000010041FFC1084008095
:1020E000008010841FFC10040000100410041FFC6A
:1020F0001004100400000000000300011001100192
:102100001FFE10001000000010041FFC11040380CB
:102110001464181C1004000010041FFC10040004B8
:1021200000040004000C000010041FFC1F0000FC51
:102130001F001FFC1004000010041FFC0C0403000F
:1021400000E010181FFC100007F00808100410042D
:102150001004080807F0000010041FFC1084108011
:10216000108010800F00000007F0081810241024C1
:10217000101C080A07F2000010041FFC11041100D3
:1021800011C011300E0C000400000E1C110410844C
:10219000108410441C3800001800100010041FFCAC
:1021A000100410001800000010001FF810040004B4
:1021B000000410041FF8100010001E0011E0001CA5
:1021C000007013801C0010001FC0103C00E01F00B6
:1021D00000E0103C1FC000001004180C163401C0B1
:1021E00001C01634180C100410001C00130400FC6D
:1021F00013041C00100000000804101C106410845C
:1022000013041C04101800000000000000007FFEF2
:102210004002400240020000000030000C00038039
:102220000060001C00030000000040024002400269
:102230007FFE0000000000000000000020004000C1
:1022400040004000200000000001000100010001EA
:1022500000010001000100010000400040002000DA
:10226000000000000000000000000098012401446C
:102270000144014400FC000410001FFC008801041C
:102280000104008800700000000000700088010454
:1022900001040104008800000000007000880104AF
:1022A000010411081FFC0004000000F8014401446F
:1022B0000144014400C800000000010401040FFCB7
:1022C0001104110411001800000000D60129012991
:1022D000012901C90106000010041FFC008401004F
:1022E0000100010400FC000400000104190419FCB1
:1022F00000040004000000000000000300010101D0
:10230000190119FE0000000010041FFC0024004009
:1023100001B4010C010400000000100410041FFCB3
:102320000004000400000000010401FC010401009D
:1023300001FC0104010000FC010401FC0084010017
:102340000100010400FC0004000000F80104010485
:102350000104010400F80000010101FF00850104EF
:102360000104008800700000000000700088010473
:102370000104010501FF00010104010401FC0084C6
:102380000104010001800000000000CC01240124B0
:10239000012401240198000000000100010007F859
:1023A0000104010400000000010001F80004000421
:1023B0000004010801FC0004010001800170000C10
:1023C000001001600180010001F0010C003001C02B
:1023D0000030010C01F0010000000104018C0074C8
:1023E0000170018C01040000010101810171000EE6
:1023F000001801600180010000000184010C01341B
:1024000001440184010C00000000000000000000F5
:1024100001003EFC400240020000000000000000FD
:10242000FFFF0000000000000000400240023EFCF0
:10243000010000000000000000006000800080003B
:1024400040004000200020000000000000000000CC
:10245000000000000000000000000000000000007C
:10246000000000000000000000000000000000006C
:1024700000000000000000000000000F80380FFE88
:10248000380F80380000000000000000000000004D
:102490000000000000000100000600000C000038F1
:1024A00000003100000600000C0000380000300081
:1024B000000000000000000061800067F807F9805C
:1024C0000061800061800061800061800067F80722
:1024D000F98000618000000000000000000001C0E1
:1024E000E003E0F00630080418081FFFFE040E08A1
:1024F0000787F00381E000000000000001F0000603
:102500000C00040408060C7001F9C0000E00003B2A
:10251000E000EC18070808040C180003E0000000B5
:102520000001E00007F003F818041C08041708076E
:10253000E1D003C0E00023B0003C08002008000008
:102540001000000000000001000031000032000017
:102550001C0000000000000000000000000000005F
:10256000000000000000000000000000000000006B
:1025700000000000000000007F0001FFC00780F0A5
:102580000C001810000420000200000000000020D1
:1025900000021000040C00180780F001FFC0007F4B
:1025A000000000000000000000000000000000002B
:1025B000000000004200006600006600003C0000D1
:1025C000180003FFC0001800003C00006600006611
:1025D00000004200000000000800000800000800A1
:1025E00000080000080001FFC0000800000800000B
:1025F00008000008000008000000000000010000C2
:102600003100003200001C0000000000000000004B
:1026100000000000000000000000000000000000BA
:10262000080000080000080000080000080000087A
:10263000000008000008000008000008000000007A
:1026400000000000000000003800003800003800E2
:10265000000000000000000000000000000000007A
:102660000000000000000000000600001C000070D8
:10267000000180000E0000380000C0000700001CB0
:102680000000300000000000000000007F8001FF1B
:10269000E003807006001804000804000806001813
:1026A00003807001FFE0007F800000000000000058
:1026B000000001000801000801000803FFF807FFFF
:1026C000F8000008000008000008000000000000FA
:1026D00000000001C03802C058040098040118042A
:1026E0000218040418061C1803F81801E0F800008A
:1026F0000000000000000001C0E003C0F00400087A
:1027000004080804080806180803F41801E7F00094
:1027100001E0000000000000000000000300000DC8
:102720000000110000610000810803010807FFF8A4
:102730000FFFF80001080001080000000000000081
:1027400000E007FCD006080806100806100806106E
:1027500008061838060FF00607C000000000000049
:10276000000000003F8001FFE003843002081804ED
:102770001008041008041008071810030FF00007D1
:10278000C000000000000000000003C000070000BF
:102790000600000600F80607F806180006E0000725
:1027A000000006000000000000000001E1E003F767
:1027B000F0063410041808041808040C08040C0867
:1027C00006161803F3F001C1E0000000000000004D
:1027D000F80003FC3003063804020804020804026F
:1027E000080404100308F001FFC0007F000000008F
:1027F00000000000000000000000000000000000D9
:1028000070380070380070380000000000000000D0
:1028100000000000000000000000000000000000B8
:1028200000000000301A00301C0000000000000012
:102830000000000000000000000000000000000890
:1028400000001400002200004100008080010040D0
:102850000200200400100800080000000000000032
:1028600021000021000021000021000021000021A2
:1028700000002100002100002100002100000000D4
:102880000000000000000800080400100200200101
:102890000040008080004100002200001400000879
:1028A0000000000000000003C00004C0000400009D
:1028B000080038080F380808380810000C300007E6
:1028C000E00003C000000000000000003F8000FFA7
:1028D000E0038070020F1006708804C0880483082B
:1028E000047F8802C09003012000FE400000080021
:1028F00000180001F8003E0801C20007020007E2CC
:102900000000FE00001FC80001F8000038000008A9
:1029100004000807FFF807FFF80408080408080483
:10292000080804080806180803F41801E7F0000175
:10293000E0000000000000003F8001FFE003807025
:10294000020018040008040008040008040010062F
:1029500000200780C000000004000807FFF807FF00
:10296000F80400080400080400080400180200101D
:1029700003807001FFE0007F800000000400080772
:10298000FFF807FFF804080804080804080804080A
:1029900008043E080400080600180100600000005A
:1029A00004000807FFF807FFF804080804080004FB
:1029B0000800040800043E00060000060000018034
:1029C00000000000000000003F8001FFE003807075
:1029D0000600180400080402080402080203F007B5
:1029E00083F000020000020004000807FFF807FF60
:1029F000F8040808000800000800000800000800AB
:102A000004080807FFF807FFF804000800000000AA
:102A1000000004000804000804000807FFF807FF8E
:102A2000F80400080400080400080000000000008A
:102A3000000000000006000007000001040001047F
:102A4000000104000307FFFE07FFFC040000040070
:102A50000004000004000807FFF807FFF8040C0852
:102A6000001800003E0004C7800503C80600F804F3
:102A7000003804001800000804000807FFF807FFEA
:102A8000F804000800000800000800000800000822
:102A900000000800001800006000000004000807A3
:102AA000FFF807800807FC00007FC00003F800075C
:102AB000C000780007800807FFF807FFF804000847
:102AC00004000807FFF807000803C00000E000004A
:102AD0003800001E000007000001C00400F007FFDE
:102AE000F8040000000000007F8001FFE003807018
:102AF000060018040008040008060018030030014E
:102B0000FFE0007F8000000004000807FFF807FFD7
:102B1000F80404080404000404000404000404008D
:102B2000060C0003F80001F00000000000000000A7
:102B30007F8001FFE00380700600880400880400A5
:102B4000C806003C03003E01FFE6007F8400000051
:102B500004000807FFF807FFF80408080408000449
:102B60000C00040F00040BC00610F003F03801E065
:102B70000800000800000001E0F803F03006301003
:102B8000041808041808040C08040C0802061802AB
:102B900007F00781E000000001800006000004004B
:102BA0000004000004000807FFF807FFF80400080D
:102BB000040000040000060000018000040000077B
:102BC000FFE007FFF0040018000008000008000004
:102BD0000800000800000804001007FFE0040000DF
:102BE00004000006000007E00007FE00041FE000EC
:102BF00001F80000380001E0043E0007C0000600B4
:102C00000004000004000007E00007FFC0041FF8F4
:102C10000007C007F80007FF80043FF80007C00462
:102C2000F80007000004000000000004000806008F
:102C30001807C07805F1C8003E00001F800463E853
:102C40000780F806001804000800000004000006D1
:102C5000000007800007E008047C08001FF8000758
:102C6000F800180804E0080700000600000400004F
:102C70000000000100080600380400F80403E8041E
:102C80000F08047C0805F00807C0080700180400B6
:102C900060000000000000000000000000000000D4
:102CA0000000003FFFFE2000022000022000022062
:102CB00000022000020000000000000000000800E8
:102CC0000007000000C0000038000006000001C03E
:102CD00000003000000E00000100000000000000B5
:102CE000000020000220000220000220000220003C
:102CF000023FFFFE00000000000000000000000096
:102D0000000000000000000000080000100000307B
:102D1000000020000030000010000008000000004B
:102D2000000000000000010000010000010000019F
:102D3000000001000001000001000001000001008E
:102D40000001000001000001000000000000000080
:102D50000020000020000010000010000000000013
:102D60000000000000000000000000000000000063
:102D700000F00019F8001B180022080026080024A3
:102D800008002410003FF8001FF800000800001899
:102D900000000004000007FFF80FFFF00018180003
:102DA0001008002008002008003018001FF0000F55
:102DB000C00000000000000007C0001FF000183035
:102DC000002008002008002008003C08001C10001B
:102DD00000600000000000000000000007C0001FAD
:102DE000F000381800200800200800200804101007
:102DF00007FFF80FFFF000001000000000000000C7
:102E000000000007C0001FF000123000221800224E
:102E100008002208003208001E10000E20000000EA
:102E200000000000200000200800200801FFF80337
:102E3000FFF80620080420080420080720000300EB
:102E40000000000000000000000E000E6E001FF3E6
:102E50000031B10020B10020B1003191001F1300FA
:102E60002E1E00200E00300000000004000807FFA6
:102E7000F80FFFF8001008002000002000002008D4
:102E8000003FF8001FF800000800000000000000EC
:102E90000000002008002008002008063FF8063F38
:102EA000F800000800000800000800000000000012
:102EB00000000000000000000300000300200100EB
:102EC0002001002003063FFE063FFC00000000003A
:102ED0000000000000000004000807FFF80FFFF8E2
:102EE000000188000300002FC00038F800203800DF
:102EF000200800000800000000000000000004009E
:102F00000804000804000807FFF80FFFF800000895
:102F10000000080000080000000000000020080079
:102F20003FF8003FF8001008002000003FF8003F85
:102F3000F8001008002000003FF8003FF8000008EB
:102F4000000000002008003FF8003FF800100800D3
:102F50001000002000002008003FF8001FF80000CB
:102F6000080000000000000007C0000FF00018304B
:102F70000030080020080020080030080018300049
:102F80000FF00007C0000000000000002001003F1B
:102F9000FF003FFF0010110020090020080020085A
:102FA000003038001FF0000FC000000000000000DB
:102FB00007C0001FF000381800200800200800207B
:102FC00009001011001FFF003FFF0000010000007A
:102FD000002008002008002008003FF8003FF8000B
:102FE0000808001008002008002000003000003011
:102FF00000000000000000000000000C78001E1817
:1030000000330800230800210800218800219800CF
:1030100030F00038600000000000000020000020B8
:103020000000200000FFF003FFF800200800200847
:103030000020080000300000000000000000000038
:103040002000003FF0007FF800001800000800009A
:1030500008002010003FF8007FF000001000000082
:10306000000000002000003000003C00003F800015
:1030700023F0000078000070002380003C00003046
:1030800000002000002000003C00003FE00023F88A
:103090000000E0002700003E00003FE00021F800B3
:1030A00001E0003E00002000000000002008002099
:1030B00008003838003E680027800003C8002CF85C
:1030C0000038380020180020080000000000000030
:1030D0002000003003003C01003F830023EC00008F
:1030E00070002380003C0000200000200000000051
:1030F0000000000000000038080020380020F80020
:1031000023E8002F88003E0800380800201800003F
:10311000700000000000000000000000000000003F
:103120000000000008000014001FF7FC300006201B
:10313000000200000000000000000000000000008D
:1031400000000000000000000000FFFFFF00000082
:10315000000000000000000000000000000000006F
:1031600000002000023000061FF7FC0014000008D9
:10317000000000000000000000000000000000004F
:103180000000001800006000004000004000002027
:1031900000001000000800000400000400000C0003
:1031A000001000003031323334353637383941427F
:1031B0004344454640305800303132333435363799
:1031C0003839616263646566403078000400000845
:1031D00000000000000000020001000010000000DC
:1031E00000320008000000200C00000080010008F0
:1031F0000C3200080C000020740600009C0100083E
:0C32000000A24A04000000000000FFFFD4
:0400000508000145A9
:00000001FF
